S00B00007370692E73726563CD
S11300000C942A000C943F000C943F000C943F0085
S11300100C943F000C943F000C943F000C943F0060
S11300200C943F000C943F000C943F000C943F0050
S11300300C943F000C943F000C943F000C943F0040
S11300400C943F000C943F000C943F000C943F0030
S11300500C943F0011241FBECFE5D4E0DEBFCDBF1A
S113006010E0A0E6B0E0E8E3F1E002C005900D92F4
S1130070A236B107D9F70E9465000C949A000C943B
S1130080000087B3806B87BB81E58DB908958FB974
S1130090779BFECF0895CF93C62F98B39F7E98BBCE
S11300A00E9447008C2F0E94470088B3806188BB60
S11300B0CF910895CF93C09160006FE08C2F0E9480
S11300C04B00C150D1F7CF9108950E944100609137
S11300D0600061508BE00E944B0062E08AE00E9465
S11300E04B0061E08CE00E944B000E945A006FE7D5
S11300F081E00E944B0060E782E00E944B006FE5C4
S113010083E00E944B006BE584E00E944B0063E3B4
S113011085E00E944B0069E786E00E944B006DE693
S113012087E00E944B0060E388E00E944B0080E07F
S10B013090E00895F894FFCF5C
S10501380800B9
S9030000FC
