:020000020000FC
:040000000C94140048
:100024000C94400004E00EBF0FE50DBF0FE007BBCA
:100034000FEF0ABB5BEF509361005BEF50936200DC
:100044005BEF50936300F0E0E6EA03E003BF01E0F6
:1000540008BF09BF0EEF02BF41E078945591509359
:1000640060000E943600FACF1FEF2FEF3FE21A958F
:10007400F1F72A95E1F73A95D1F70895F894440FEA
:10008400403141F048BB0D910C910BBB00E002BF25
:100094007894189541E048BBB0E0A0E60C910BBB06
:0C00A400F5CFEB28B3BA78DADBA8FBFA42
:00000001FF
