:100000000C942A000C9447000C9447000C94470071
:100010000C9447000C9447000C9447000C94470044
:100020000C9447000C9447000C9447000C94490032
:100030000C9447000C9447000C9447000C94470024
:100040000C9447000C9447000C9447000C94470014
:100050000C94470011241FBECFE5D4E0DEBFCDBF16
:1000600010E0A0E6B0E0ECE0F3E002C005900D92F5
:10007000A639B107D9F721E0A6E9B0E001C01D9289
:10008000A639B207E1F70E944B010C9484010C944D
:1000900000001F920F920FB60F9211242F933F93DF
:1000A0008F939F93EF93FF938CB18A30D9F08D306B
:1000B00059F4E0919900F0919A00E456FF4F1082B4
:1000C00081E0809398000EC02091990030919A00B1
:1000D000F901E456FF4F80832F5F3F4F30939A0022
:1000E000209399008091990090919A008D37910505
:1000F00039F4FC01E456FF4F108281E080939800B0
:10010000FF91EF919F918F913F912F910F900FBE93
:100110000F901F90189590BD89B980E28BB988E93E
:100120008AB986E880BD08955D9BFECF8CB908959D
:100130000F931F93CF93DF938C01C0E0D0E003C0F7
:1001400021960E949400F801EC0FFD1F808181111F
:10015000F7CFDF91CF911F910F9108950E949800E2
:100160008AE00E9494008DE00E949400089510920D
:100170009C0010929A001092990010929800089595
:1001800080E090E005C0FC01E75EFE4F1082019622
:100190002091990030919A0082179307A4F3089553
:1001A0000E94C00080919C008B3261F5ECE9F0E088
:1001B000918182819F708F70890F80939B008A301C
:1001C00038F4E9E1F1E08063808380E2818314C048
:1001D000E9E1F1E09DEC899F912D1124969596958A
:1001E0009695292F20632083990F292F220F220F04
:1001F000920F891B8063818381E080939700109226
:10020000960008958D3289F4ECE9F0E081819281C5
:10021000891B80939B008F7080638093190181E01C
:10022000809397001092960008958A3271F5ECE958
:10023000F0E0918182819F708F70989F802D1124B2
:1002400080939B008A3038F4E9E1F1E08063808399
:1002500080E2818314C0E9E1F1E09DEC899F912D5A
:100260001124969596959695292F20632083990FB2
:10027000292F220F220F920F891B8063818381E037
:100280008093970010929600089581E080939600E5
:10029000109297000895789483E390E00E948B0079
:1002A00080E690E00E94AE00809198008823E1F300
:1002B0000E94D0008DE690E00E9498008CE990E0CA
:1002C0000E94AE0080919700882369F089E790E052
:1002D0000E94980089E191E00E94AE000E94B70060
:1002E0000E94C0000CC080919600882341F087E8EE
:1002F00090E00E94AE000E94B7000E94C0000E94E1
:0C030000B7000E94C000D0CFF894FFCFDF
:10030C0048656C6C6F2074686572652100596F7557
:10031C00207072696E743A2000596F757220726584
:10032C0073756C743A2000596F7520676F74206573
:06033C0072726F720000F6
:00000001FF
