:100000000C942A000C943F000C943F000C943F0089
:100010000C943F000C943F000C943F000C943F0064
:100020000C943F000C943F000C943F000C943F0054
:100030000C943F000C943F000C943F000C943F0044
:100040000C943F000C943F000C943F000C943F0034
:100050000C943F0011241FBECFE5D4E0DEBFCDBF1E
:1000600010E0A0E6B0E0E0EFF1E002C005900D92F4
:10007000A836B107D9F70E94DD000C94F6000C9465
:1000800000008BBB88B38D7F88BB88B38E7F88BB15
:1000900088B3846088BB00C000C0000088B38B7F39
:1000A00088BB81E28A95F1F7000008958BBB88B385
:1000B0008D7F88BB88B3816088BB88B3846088BB30
:1000C00000C000C0000088B38B7F88BB81E28A95A6
:1000D000F1F70000089587E893E10197F1F700C078
:1000E000000088E30E9441008EE00E94410081E010
:1000F0000E94410087E893E10197F1F700C00000FA
:1001000086E00E9441000895CF93DF9300D000D095
:10011000CDB7DEB790E8998390EC9A8394E99B83FE
:1001200094ED9C83E82FF0E0319781E090E08C0F14
:100130009D1FE80FF91F8081860F81500E944100AA
:1001400083EC99E00197F1F700C000000F900F9049
:100150000F900F90DF91CF910895CF93DF93EC0133
:1001600003C021960E94560088818111FACFDF9149
:10017000CF91089588E00E94410083E294EF0197B7
:10018000F1F700C000008CE00E94410083E294EF90
:100190000197F1F700C00000089581E00E9441003E
:1001A00087EA91E60197F1F700C0000008958FEF0C
:1001B00087BB18BA8ABB1BBA08950E94D7000E9459
:1001C000CD000E946B0062E081E00E94840080E626
:1001D00090E00E94AD0063E082E00E94840086E629
:1001E00090E00E94AD000E94BA00FDCFF894FFCFCE
:0801F00048454C4C4F00310062
:00000001FF
