S00C0000554152542E73726563DC
S11300000C942A000C9447000C9447000C9447006D
S11300100C9447000C9447000C9447000C94470040
S11300200C9447000C9447000C9447000C9449002E
S11300300C9447000C9447000C9447000C94470020
S11300400C9447000C9447000C9447000C94470010
S11300500C94470011241FBECFE5D4E0DEBFCDBF12
S113006010E0A0E6B0E0EEEAF1E002C005900D92E7
S1130070AE36B107D9F720E0AEE6B0E001C01D927C
S1130080AE3EB207E1F70E94C1000C94D5000C9477
S113009000001F920F920FB60F9211242F933F93DB
S11300A08F939F93EF93FF938CB18A30E1F08D305F
S11300B059F4E0916F00F0917000EF58FF4F1082F7
S11300C081E080936E000FC020916F00309170002A
S11300D0F901EF58FF4F8F5F80832F5F3F4F3093BD
S11300E0700020936F0080916F00909170008D37A5
S11300F0910539F4FC01EF58FF4F108281E08093A1
S11301006E00FF91EF919F918F913F912F910F90EE
S11301100FBE0F901F9018951092710010927000EE
S113012010926F0010926E00089590BD89B980E21C
S11301308BB988E98AB986E880BD08955D9BFECFB6
S11301408CB908950F931F93CF93DF938C01C0E074
S1130150D0E003C021960E949E00F801EC0FFD1F21
S113016080818111F7CFDF91CF911F910F91089575
S11301700E94A2008AE00E949E008DE00E949E00E0
S11301800895789483E390E00E94950080E690E0DF
S11301900E94B80080916E008823E1F381E790E02B
S11101A00E94B8000E948C00F5CFF894FFCFA7
S11101AE48656C6C6F207468657265210000F2
S9030000FC
