:100000000C942A000C943F000C943F000C943F0089
:100010000C943F000C943F000C943F000C943F0064
:100020000C943F000C943F000C943F000C943F0054
:100030000C943F000C943F000C943F000C943F0044
:100040000C943F000C943F000C943F000C943F0034
:100050000C943F0011241FBECFE5D4E0DEBFCDBF1E
:1000600010E0A0E6B0E0E0EDF2E002C005900D92F5
:10007000AC36B107D9F70E94F8000C9466010C94D5
:10008000000088B3846088BB8FEC97E00197F1F79C
:1000900000C0000088B38B7F88BB089581E08BBBD4
:1000A0000E9441002FEF80E792E021508040904075
:1000B000E1F700C00000089582E08BBB0E94410080
:1000C000089590E0880F991F8460862B8BBB0E9457
:1000D0004100089590E0880F991F880F991F70E0E4
:1000E000660F771F8860682B642B6BBB0E944100F2
:1000F0000895982F88B38B7F88BB1BBA2BB3892FA9
:1001000090E0880F991F880F991F822B80618BBB0D
:100110000E944100089588B38B7F88BB88E38BBB26
:100120000E9441000E945C00089591E098BB8BBB47
:100130000E94410088B38E7F88BB08950F931F9360
:10014000CF938C01C0E003C0CF5F0E949500F801FF
:10015000EC0FF11D80818111F7CFCF911F910F918D
:100160000895CF93DF9318BA88E48BBB0E944100B7
:1001700081E088BBCFE1CBBB0E944100D1E1DBBB7A
:100180000E944100DBBB0E944100CBBB0E944100AA
:10019000D5E1DBBB0E944100CBBB0E944100DBBB31
:1001A0000E944100CBBB0E94410018BA80E88BBB83
:1001B0000E944100DF91CF9108951F93CF93DF9369
:1001C000182FD62F0E945C00C0E004C081E00E947E
:1001D0007900CF5FCD17D0F381E088BB1BBB0E94B5
:1001E000410088B38E7F88BBDF91CF911F91089526
:1001F0008FEF87BB8ABB18BA0E948B000E944E000B
:1002000060E081E00E94610040E060E081E00E94E7
:100210006A0080E690E00E949E000E94B1006FE0BC
:1002200081E00E94DD00E12CF12CE7012FEF39E69F
:1002300088E1215030408040E1F700C0000040E0FC
:1002400050E02FC08A010F5F1F4F9E01ADECBCEC48
:100250000E945701969587959695879596958795CF
:100260009C01220F331F880F991F880F991F880F39
:10027000991F820F931F9E01281B390BC9016EE045
:10028000641B805D0E94DD009E01ADECBCEC0E9411
:100290005701EC01D695C795D695C795D695C795C4
:1002A000A801209779F63FEFE31AF30ABECFA29F89
:1002B000B001B39FC001A39F700D811D1124911D3A
:1002C000B29F700D811D1124911D0895F894FFCFE8
:0C02D00053746F7077617463683A20000B
:00000001FF
