:020000020000FC
:100000000FE50DBF04E00EBF0FEF0ABB01E007BB19
:100010000FE002BB20E0BB27A0E60FE30D9306E054
:100020000D930BE50D930FE40D9306E60D930BC0B6
:10003000222702E0200F36953030E1F723954695D0
:100040004230E1F7201B022F0E9440000BBB01E071
:1000500008BB0E94450031E0002701BB0FE00327E9
:1000600002BB31BB44E000B304230427041701F3AF
:10007000440F403109F0F7CF330F343051F3ECCF58
:10008000BB27A0E6A00F0C9108950FEF1FE00150D1
:060090001040E9F708959D
:00000001FF
